:1000000000C600001BC6000019C600000C94FE2F9D
:1000100015C6000013C6000011C600000FC6000080
:100020000DC600000BC600000C9481150C94401AFC
:100030000C943A2803C6000001C60000FFC500006A
:10004000FDC50000FBC50000F9C50000F7C50000B4
:10005000F5C500000C942D15F1C50000EFC500009A
:10006000EDC50000EBC50000E9C50000E7C50000D4
:10007000E5C50000E3C50000E1C50000DFC50000E4
:10008000DDC50000DBC50000D9C50000D7C50000F4
:10009000D5C50000D3C50000D1C50000CFC5000004
:1000A000CDC50000CBC50000C9C500000808080880
:1000B00008080829001E001F002000210022002B34
:1000C0000014001A00080015001700394204001639
:1000D00000070009000A00E1001D001B00060019CE
:1000E00000050000004C21E200E3002C412F002A13
:1000F00000270026002500240023002D00130012F5
:10010000000C0018001C00340033000F000E000D1E
:10011000000B00E500380037003600100011000029
:10012000004C31E600E7002C4130000100010001E5
:1001300000010001004A00350000000000520000EC
:10014000004B0001000000500051004F004E000124
:100150000000000000000000004D00000001000150
:10016000000100010001004C00010001000100013C
:10017000004A002E0000000000520000004B002842
:100180000000004F00510050004E000100310000FF
:1001900000000000004D000000010001000100010E
:1001A00000010001003A003B003C003D003E000120
:1001B000003F004000410042004300010044004570
:1001C00000680069006A00010000000000000000F3
:1001D0000000000000010001000100010001004CCE
:1001E0000056005500540053000000010057006104
:1001F0000060005F000000280085005E005D005C7C
:10020000000000010067005B005A00590062000016
:100210000001000100010001000100FCFEFFFFFFE2
:10022000FFFFFFFFFFFFFFFFFFFFFFFFFFFFFFFFDE
:10023000FFFFFFFFFFFFFFFFFFFFFFFFFFFFFFFFCE
:100240001F1F1F1F1FFFFFFFFFFFFFFFFFFFFFFF1E
:10025000FFFFFFFFFEFC000000F8F80000000000B8
:1002600000000080800000E0E000000000000000CE
:100270000000000000F8F81818181818180000F00E
:10028000F81818181818F8F0000000000000000016
:100290000000000000000000000000FFFFFFFFFF63
:1002A0000707070707FF0707070707FF07070707EE
:1002B00007FF0707070707FF0707070707FFFFFFF6
:1002C0000404040404FF0707070707FF07070707DD
:1002D00007FFFFFFFFFF000000FFFF00000000001E
:1002E000000000F9F90000FFFF0000F8F80000002E
:1002F00000F8F80000070706060606FEFC0000FBF3
:10030000FF0606060606FFFB0000000000000000D6
:100310000000000000000000000000FFFFFFFFFFE2
:100320004141414141FFFFFFFFFFFFFF414141418B
:1003300041FFFFFFFFFFFFFF4141414141FFFFFF41
:100340004141414141FF7F7F7F7F7FFF41414141EB
:1003500041FFFFFFFFFF000000030303030303034C
:1003600003000003030000030300008383838383EF
:1003700083FFFF00000303030303030301000001E5
:1003800003030303030303E1F030B0B070F030B0B7
:10039000B070F070B0B070F0E000003F7FFFFFFF82
:1003A000F0F0F0F0F0FFFFFFFFFFFFFFF0F0F0F0E4
:1003B000F0FFFFFFFFFFFFFFF0F0F0F0F0FFFFFFA7
:1003C000F0F0F0F0F0FFF0F0F0F0F0FFF0F0F0F00F
:1003D000F0FFFFFF7F3F0000000000000000000072
:1003E0000000000000000000000000010101010108
:1003F00001010100000000000000000000000000FA
:10040000000000000000001F3F303D3D3E3F303DFA
:100410003D323F383737383F1F00000001010101EE
:1004200001010101010202020202020202020303AF
:10043000030303030303040404040404040505057F
:100440000505060606060607070707070808080841
:10045000090909090A0A0A0B0B0B0C0C0C0D0D0DEE
:100460000E0E0E0F0F0F1010111111121213131484
:1004700014151516161717181819191A1A1B1B1CFC
:100480001D1D1E1E1F202021222223242425262656
:10049000272829292A2B2C2D2D2E2F30313232338B
:1004A0003435363738393A3B3C3D3E3F4041424394
:1004B0004445464748494A4C4D4E4F505153545578
:1004C0005658595A5B5D5E5F616264656668696B28
:1004D0006C6D6F7072737577787A7B7D7E808283A6
:1004E0008587888A8C8E8F91939596989A9C9EA0EA
:1004F000A2A3A5A7A9ABADAFB1B3B5B7BABCBEC0F7
:10050000C2C4C6C9CBCDCFD1D4D6D8DBDDDFE2E4BF
:10051000E7E9EBEEF0F3F5F8FAFDFF00DA0281FF10
:10052000D9F1DB20A4A62EAF00A0C0D30000A1C843
:10053000D30000AED580A81F408D14200000AF006E
:10054000AE707070007070700070707000707070BD
:1005500000707070000077777700707070007070B6
:100560007077777700000000007777770000000051
:100570000077777700007777770070707000777773
:100580007705010902A10185020901A100050919E8
:100590000129081500250195087501810205010949
:1005A0003009311581257F950275088106093815B6
:1005B00081257F950175088106050C0A3802158191
:1005C000257F950175088106C0C005010980A1013C
:1005D000850319012AB700150126B700950175108A
:1005E0008100C0050C0901A101850419012AA0029E
:1005F000150126A002950175108100C005010906AC
:10060000A101050719E029E71500250195087501E5
:1006100081029501750881010507190029FF150060
:1006200026FF0095067508810005081901290515A2
:10063000002501950575019102950175039101C091
:1006400009023B00020100A0FA09040000010301B5
:10065000010009211101000122440007058103085E
:10066000000109040100010300000009211101003B
:1006700001227B0007058203200001120100020015
:100680000000087171020000010102000116034C14
:100690000069006C007900350038002000500072BD
:1006A000006F00000016034D0065006300680062E3
:1006B000006F006100720064007300000004030911
:1006C0000407087F0807003E5B4F5B3E003E6B4F10
:1006D0006B3E001C3E7C3E1C00183C7E3C18001CFF
:1006E000577D571C001C5E7F5E1C0000183C1800E4
:1006F00000FFE7C3E7FF00001824180000FFE7DB56
:10070000E7FF0030483A060E0026297929260040E6
:100710007F05050700407F05253F005A3CE73C5A0E
:10072000007F3E1C1C0800081C1C3E7F0014227F1A
:100730002214005F5F005F5F0006097F017F0000F9
:100740006689956A0060606060600094A2FFA29470
:100750000008047E04080010207E20100008082AEB
:100760001C0800081C2A0808001E10101010000C9D
:100770001E0C1E0C0030383E383000060E3E0E06B1
:100780000000000000000000005F00000000070003
:10079000070000147F147F1400242A7F2A120023EC
:1007A0001308646200364956205000000807030011
:1007B00000001C224100000041221C00002A1C7F76
:1007C0001C2A0008083E080800008070300000085D
:1007D00008080808000000606000002010080402FB
:1007E000003E5149453E0000427F400000724949A9
:1007F0004946002141494D33001814127F1000274B
:1008000045454539003C4A49493100412111090714
:1008100000364949493600464949291E000000145E
:1008200000000000403400000000081422410014C1
:10083000141414140000412214080002015909067E
:10084000003E415D594E007C1211127C007F4949E7
:100850004936003E41414122007F4141413E007FF7
:1008600049494941007F09090901003E414151734D
:10087000007F0808087F0000417F410000204041C0
:100880003F01007F08142241007F40404040007F2C
:10089000021C027F007F0408107F003E4141413E60
:1008A000007F09090906003E4151215E007F0919B8
:1008B00029460026494949320003017F0103003FD0
:1008C0004040403F001F2040201F003F4038403F35
:1008D0000063140814630003047804030061594999
:1008E0004D4300007F4141410002040810200000F8
:1008F0004141417F00040201020400404040404069
:10090000000003070800002054547840007F28446A
:10091000443800384444442800384444287F003890
:10092000545454180000087E09020018A4A49C78AE
:10093000007F080404780000447D4000002040400F
:100940003D00007F102844000000417F4000007CF3
:1009500004780478007C080404780038444444385F
:1009600000FC182424180018242418FC007C080417
:1009700004080048545454240004043F4424003C18
:100980004040207C001C2040201C003C4030403C6B
:10099000004428102844004C9090907C00446454FB
:1009A0004C440000083641000000007700000000C1
:1009B00041360800000201020402003C2623263CC6
:1009C00000000000000000404040F0F8F8FF38FF51
:1009D000F8F83FF8F8FF38FFF8F8F0404040000022
:1009E0000000000080C0C0C0800000C0C0800000C7
:1009F0000080C0C000C0C0000080C0C00000000077
:100A000000C0C0C0C0C000C0C000000000000000A6
:100A100000000000000000000000000000000000D6
:100A200000000000000000000000000000000000C6
:100A300000000000000000000000000000000000B6
:100A4000C0F0F8FC3E1E06010000007F4141417FDE
:100A5000007F4141417F000080C0E07E5B4F5BFE34
:100A6000C00000C000DCD7DEDEDED7DC00C0000046
:100A70000000000000000000000000000000000076
:100A800000000000000000494949FFFFFFFFE0DFD0
:100A9000BFBF00BFBFDFE0FFFFFFFF4949490000C4
:100AA0000000001F3F6060E0BF1F007F7F071E380F
:100AB0001E077F7F007F7F0E1F3B716000000000DC
:100AC000007F7F0C0C0C007E7E007F7E0303007F86
:100AD0007E03037E7E03037F7E000F3E703C063C58
:100AE000703E0F00327B49493F7E007F7E0303004A
:100AF0001E3F69696F260000000000000000000032
:100B0000030F1F3F3C7870600000007F4141417F30
:100B1000007F4141417F00307B7F7830202030785A
:100B20007F3B0003000F7F0F0F0F7F0F00030000BC
:100B300000000000000000000000000000000000B5
:100B400000000000000000010101070F0F7F0F7F70
:100B50000F0F7E0F0F7F0F7F0F0F070101010000A6
:100B60000000000000000000010100000000000083
:100B70000000000000000000000000000000000075
:100B80000000000000000000000000000000000065
:100B90000000000000000000000000000000000055
:100BA0000000000000000000000000000000000045
:100BB0000000000000000000000000000000000035
:100BC0000000000000000000000000000000000025
:100BD0000000000000000000000000000000000015
:100BE0000000000000000000000000000000000005
:100BF00000000000000000000000000000000000F5
:100C0000000011241FBECFEFDAE0DEBFCDBF14E03D
:100C1000A0E0B1E0EAE3F5E602C005900D92A63A45
:100C2000B107D9F729E0A6EAB4E001C01D92AE36BB
:100C3000B207E1F70E9461280C944432E1C9B0E0A8
:100C4000A0E0E5E2F6E00C9428312091AB01309170
:100C5000AC012817390721F4209163072032A9F14C
:100C60009093AC018093AB0120E2209363076C0169
:100C7000F12CE12C1092620702E617E0D0E0C0E010
:100C80008AE0882E912CA12CB12CC701B601A501B8
:100C900094010E947831605D603311F4209731F047
:100CA000C114D104E104F10409F460E2F801629393
:100CB0008F01C701B601A50194010E947831690135
:100CC0007A012196C530D10501F78DE597E0CDB7C2
:100CD000DEB7ECE00C94443190915C07899FC00131
:100CE0001124811522E0920714F090E080E08A59E7
:100CF000984F90936D0980936C09089590915407D3
:100D0000937071F08093550760935607493708F048
:100D100048E74093570780915307816080935307BA
:100D2000089590915407937061F081110BC0946005
:100D3000909354071092AA01809153078160809389
:100D400053070895833010F09860F2CF880F880F12
:100D5000982BEECF482F20914F079091160757E020
:100D6000291302C080E0089530E0529FF001539FA4
:100D7000F00D1124E95EF84F8181681306C080816F
:100D8000481303C085818111EECF2F5F3F4F27703D
:100D9000E7CFE8EDF0E080818E7F80831092E20063
:100DA0001092DA001092E100A0EEB0E08C91816028
:100DB0008C9380818F77808319BCA7EDB0E08C91F4
:100DC0008E7F8C9380818F7E80831092F7060895AA
:100DD0002091E4003091E50095E6A9012091EC0016
:100DE000822F817020FF06C08091E80080FF06C03E
:100DF00080E008952091E80022FD1AC080910C0740
:100E0000882389F0853089F08091EB0085FD0FC043
:100E10002091E4003091E50042175307F9F2915018
:100E2000E1F684E0089582E0089583E0089581E08A
:100E3000089580910E0787FF13C08091E80082FF1C
:100E400006C08091E8008B778093E80004C0809111
:100E50000C078111F2CF089580910C078823D9F3F4
:100E60008091E80080FFF8CF8091E8008E77ECCF8A
:100E7000982F9093E900242F762F50E0891731F0B6
:100E80007091EC002091ED005091F00021FD07C021
:100E90009F5F973071F78093E90081E0089530916A
:100EA000EB003E7F3093EB003091ED003D7F3093BF
:100EB000ED003091EB0031603093EB007093EC006B
:100EC0002093ED005093F0002091EE0027FDE0CF3D
:100ED00080E00895B0E0A0E0E0E7F7E00C942C316A
:100EE000C8EDD0E088818F7E8883E7EDF0E08081D7
:100EF0008160808384E082BF81E08093F7068881EF
:100F00008E7F888302EE10E0F80110821092DA00E2
:100F100081EEC82ED12CF601108288818F778883CC
:100F200088818068888388818F7D888319BC10922E
:100F30000C0710920D07109201071092000790EE17
:100F4000E92EF12CF70180818B7F8083888181607D
:100F5000888342E060E080E08BDFF60180818E7F55
:100F60008083F801808181608083808188608083B4
:100F7000F70180818E7F8083888180618883CDB7EF
:100F8000DEB7E8E00C944831FC01809114079091A1
:100F9000150786179707A0F06115710529F4909140
:100FA000E8009E779093E80090E06115710551F498
:100FB000911108C08091E80082FF34C080E008955C
:100FC000BC01F2CF80910C078823C1F18530C1F1BB
:100FD0008091E80083FD30C08091E80082FDEACF77
:100FE0008091E80080FFE1CF8091F3002091F20032
:100FF000382F6115710519F02830310558F091E04E
:101000002830310509F090E02091E8002E772093F8
:10101000E800CBCF81918093F100615071092F5F7F
:101020003F4FE7CF80910C07882341F0853041F096
:101030008091E80083FFBECF81E0089582E00895AB
:1010400083E00895089587E797E7909301088093D8
:10105000000888E19AE00FB6F894A89580936000A4
:101060000FBE90936000FFCF2FB7F8946091F30606
:101070007091F4068091F5069091F6062FBF0895C1
:101080008091A70108959C01FC0132969FEF80E0BA
:101090004191461751F09F3F19F4411101C0982F1B
:1010A0008F5F8630A9F79F3F09F40895290F311DFE
:1010B00097FD3A95F90162830895A3E0B0E0E3E675
:1010C000F8E00C9432312091E8063091E9062817B7
:1010D0003907B1F09093E9068093E806E091E606BF
:1010E000F091E706309761F00084F185E02D3097AC
:1010F00039F024E029839B838A83CE0101960995E8
:101100002396E2E00C944E31A3E0B0E0EAE8F8E088
:101110000C9432312091E4063091E5062817390706
:10112000B1F09093E5068093E406E091E606F09135
:10113000E706309761F00084F185E02D309739F0B3
:1011400023E029839B838A83CE0101960995239608
:10115000E2E00C944E318091E206882369F0E09140
:10116000E606F091E706309739F00190F081E02D26
:10117000309711F00995089580E008958091D70681
:1011800080FD16C081FD16C082FD16C08091D60676
:101190008823A1F0883280F428E0829FC0011124C6
:1011A00068E270E00E946531862F672B39F0089560
:1011B00082E0089584E0089588E0089581E008952C
:1011C0008091D70680FD14C081FD14C082FD16C039
:1011D0008091D506882381F08E3180F420E5829FAE
:1011E000C00111246EE170E00E946531862F0895E0
:1011F00084E1089588E2089588E0089580E50895DF
:10120000282F35EB2303C001112497FF04C0805819
:101210009109892F089580589F4FFBCFFC01680FDB
:10122000791F8FEF91E32191822728E030E087FF3B
:1012300009C0880F892721503109C9F7E617F70738
:1012400091F70895880FF7CFFC01EE0FFF1FE80F0D
:10125000F91FE950FA4F6183408322830895539A1E
:10126000089525EF611124EF8FB190E02F7002C037
:10127000959587952A95E2F78170089525EF61117C
:1012800024EF30B32F7081E090E001C0880F2A95E1
:10129000EAF7982F9095932390BB91B3892B81BB4C
:1012A00008959091F105E92FF0E04091F2059F013A
:1012B0002F5F3F4F2370332742171306A9F0ED50DD
:1012C000FA4F282F2F7780818078822B60FB87F957
:1012D00080839F5F93709093F1058091EF058F5FFE
:1012E0008093EF0581E0089580E00895CF93DF9328
:1012F00020916C0930916D0926563740A901460F9F
:10130000571F4130524020F060E072E0621B730BC7
:101310004091640750916507FC01C901620F731F7A
:10132000C1E0D0E08617970738F0509365074093E7
:101330006407DF91CF9108952491DC01AA59B84F39
:101340003C91321781F02C939C01A5E036952795AE
:10135000AA95E1F7DE0102C0AA0FBB1F2A95E2F7AA
:101360009D014A2B532B01963196DCCF20916C09BD
:1013700030916D092056374040915C07642F70E032
:10138000C9010E940E31481B463010F4240F311D54
:10139000211582E0380710F030E020E02A59384F5C
:1013A00030936D0920936C090895E4E5F7E02481FA
:1013B00030E1231B08F420E02483809153078160EF
:1013C000809353070895E4E5F7E0248130E1230F8B
:1013D00008F42FEF24838091530781608093530793
:1013E0000895E4E5F7E0438120E1421B08F440E082
:1013F0008181628190E082CCE4E5F7E0438120E1E5
:10140000420F08F44FEF8181628190E077CCE4E5F0
:10141000F7E0628120E1621B08F460E08181438192
:1014200090E06CCCE4E5F7E0628120E1620F08F423
:101430006FEF8181438190E061CCE4E5F7E0818149
:10144000438162818850990B59CCE4E5F7E08181B2
:1014500090E043816281089651CC80915407869533
:101460008695815009F482E05CCC80915407869582
:1014700086958F5F833008F081E053CCE4E5F7E098
:10148000808191E0892780831092AA01809153077F
:1014900081608093530708959FE0899F802D1124D8
:1014A000980F9B3408F09AE42091E306222321F060
:1014B000963228F095E20895853208F485E2089581
:1014C00080935E0180915407837080935D0117D7EC
:1014D00083E08093AA0108953091E306311104C09E
:1014E000853291050CF08597AFCEFF920F931F9335
:1014F000CF93DF93182F062FF42ED0E0C0E02F2DCE
:10150000402F612FCE01E8DF2196CA34D105B9F70B
:10151000CDB7DEB7E5E00C944B31B0E0A0E0E3E9F5
:10152000FAE00C942C319B01E82FF0E0E55EFB4FD4
:10153000311109C0E4918E2F7E2F6E2FCDB7DEB70B
:10154000E8E00C944831E32EF12CE491FE2F0E2FAD
:1015500010E046E0649FC0011124CFEFD0E0BE014F
:101560000E940E31AB01822F90E0880F991F25E574
:10157000249FB001259F700D1124861B970B982F77
:10158000990F980FBE016E197F09609FD001619F6E
:10159000B00D709FB00D11248B2F399F9001112435
:1015A000232F3327BE01621B730B609F9001619F45
:1015B000300D709F300D11246E01C91AD108CE9CD8
:1015C000B001CF9C700DDE9C700D1124672F772722
:1015D000C61BD70BC09F7001C19FF00CD09FF00CB1
:1015E00011247F2D42305105A1F050F441155105D1
:1015F00009F4A3CF4130510581F07B2F832F9DCF7C
:101600004430510569F080F04630510509F495CF1A
:10161000F4CFEB2F8F2D7F2F90CF7E2FE32F8DCF09
:10162000EF2D7B2F8F2F89CF732FEB2FFBCFB0E0C8
:10163000A0E0EDE1FBE00C942D31182F80915E01CC
:10164000811323C090915407937020915D0130E085
:1016500081E09217130609F480E0817080936101A4
:101660008091590790916001981731F08093600143
:1016700040E060E080E039DF113091F0112339F073
:10168000123009F44EC080E025C081E0E6CF8091A1
:1016900061018823F9F040E060E080E026DFF3CFCD
:1016A00080915F01F9DEC82F092F60915507709175
:1016B00056078091570731DFF62EE72ED82ED0E05F
:1016C000C01700F18091E306882309F465C081E02A
:1016D0000532C8F690915F019F5F90935F01811181
:1016E0000CC082E08093AA0180916101811105C044
:1016F000111103C083E08093AA01CDB7DEB7E7E004
:101700000C944931FE01ED5AFB4F808190916001AC
:10171000892329F02D2D4E2D6F2DCE01DDDE219652
:10172000CFCF80915F01B8DE092F20915807269511
:10173000269531E0230F08F42FEF6091B8057091E2
:10174000B90550E040E0629F060E411D729F400DBA
:10175000511D1124470F511DF42EC82FD0E0C01782
:1017600008F0B0CFFE01ED5AFB4F808190916001EF
:10177000892381F070915607FE01EE0FFF1FED5790
:10178000FC4F64AD6F1980915707C7DE472F282F94
:10179000CE01A2DE2196E3CF81E00A3408F49ACF8D
:1017A00072CF80E0089581E08093A5050895F894B4
:1017B000E82FE295EF70F0E031A1282F2F7081E043
:1017C00090E001C0880F2A95EAF7982F909593230F
:1017D00091A392A1892B82A3789408950F931F93CC
:1017E0008091E206882321F03FDC1F910F9108953C
:1017F0003BDC009137051091380520913905309177
:101800003A05600F711F821F931FEFCF909149051A
:1018100092FF10C041E0282F2471243009F040E0ED
:1018200031E0282F2871283009F030E0431711F0FB
:101830002CE0822793FF10C041E0282F247124312F
:1018400009F040E031E0282F2871283109F030E01C
:10185000431711F02CE0822730914A0530FF10C069
:1018600051E0282F2171213009F050E041E0282F6C
:101870002871283009F040E0541711F029E0822740
:1018800031FF10C041E0282F2171213109F040E0E3
:1018900031E0282F2871283109F030E0431711F08A
:1018A00029E0822794FD877E089582389105B9F159
:1018B000B0F48133910509F47DC048F48932910573
:1018C00009F46DC08A32910509F47BC0089585330F
:1018D000910509F45FC08933910509F10895833EAC
:1018E0009105D9F138F4803E910529F1823E9105A8
:1018F00079F10895863E9105D9F1873E910509F465
:101900003EC0843E910541F520914A0521FF24C047
:101910008091490584FD19C087EE90E008952091DB
:101920004905237009F05AC020914A0523FF14C0CD
:1019300089E290E008952091490520FD38C030915A
:101940004A0530FF09C024FF43C090E080E00895BD
:101950002091490522FDF7CF08952091490522FDE8
:101960003AC030914A0530FD39C024FFF5CFEDCFA4
:101970002091490523FFF0CF24FDE7CFCDCF209163
:10198000490523FD2EC030914A0531FFEECF84EE8C
:1019900090E008952091490525FFDECFC9CF209121
:1019A000490525FD21C020914A0523FFD5CF89E3B4
:1019B00090E0D2CF2091490526FFCECF8AE290E079
:1019C00008952091490526FFC7CF81E390E008954F
:1019D00083EE90E0089582EE90E0089580EE90E02E
:1019E000089586EE90E0089585E390E00895972F9E
:1019F0007A30B8F46630A8F48330B0F470E026E0B2
:101A0000929F600D711D1124FB019CE3899FE00DE5
:101A1000F11D1124EE0FFF1FED54FF4F859194919E
:101A2000089580E090E0089581E0FCCF1F93CF936C
:101A3000DF933BDFEC01C11580E5D807F0F5C11558
:101A400080E4D80708F09AC0C03ED10520F5CD3C0F
:101A5000D10508F082C0C83AD10578F4C53AD1055D
:101A600008F073C0C130D10519F1209709F1C430D5
:101A7000D105F0F4D0E0C0E01BC0C33CD105D0F7E5
:101A8000C85AD0E0CC0FDD1FC05EDC4F0990D88172
:101A9000C02DD4640DC0C11580E2D80708F0CDC0B8
:101AA000C11581E0D80708F05AC0C83ED10510F72B
:101AB000CE01DF91CF911F910895C03682E5D807FE
:101AC00018F5C03482E5D80708F068C0C03282E556
:101AD000D80708F05CC0C11582E5D80708F493C0A8
:101AE0002C2F2695269580E2289F900111248C2F7B
:101AF0008370C1E0D0E002C0CC0FDD1F8A95E2F711
:101B0000C22BD32BDD68D4CFC03A82E5D80760F46E
:101B1000C03882E5D80708F456C0CF71D0E0DC2F7A
:101B2000CC27C46FD06AC4CFC03C82E5D80708F484
:101B30005FC0C03E82E5D80708F09CCFDC2FCC27E1
:101B4000CC27DF71C06FD06AB3CFC55AD0E0C35E77
:101B5000DC4FC881D0E0D064ABCFD065A9CF8D2F4A
:101B600055DE182FCE019927A0DEC12FD0E0DC2F43
:101B7000CC27CC27DF71C82BD92B9ACFCE01992740
:101B800094DECC27DF70C82BD92BD06A91CFCF71D0
:101B9000D0E0DC2FCC27C16FD06A8ACF2C2F2695BE
:101BA0002695277080E2289F900111248C2F837046
:101BB000C1E0D0E002C0CC0FDD1F8A95E2F7C22B56
:101BC000D32BDC6875CF2C2F26952695277080E2C5
:101BD000289F900111248C2F8370C1E0D0E002C0B7
:101BE000CC0FDD1F8A95E2F7C22BD32BDA6860CFCA
:101BF0008C2F8F710BDEC82FD0E0DC2FCC27CC27A9
:101C0000DF71D06255CF8C2F8F7100DE55E0D695F5
:101C1000C7955A95E1F7CF70D0E0DC2FCC27282F5D
:101C200030E084FF06C044E0220F331F4A95E1F7FD
:101C30003327C22BD32BD0693BCF8D2F8F71E6DD9D
:101C4000182FCE01992731DEC12FD0E0DC2FCC2711
:101C5000CC27DF71C82BD92BD4CF80959091E40489
:101C600098239093E404089580914F07909116076C
:101C7000981301C008958F5F8770FACFB0E0A0E09D
:101C8000E4E4FEE00C942B317C0100914B051091B3
:101C90004C058091470590914805082B192BCFE002
:101CA000D0E0CC24C394D12CBC2EC6010C2E02C093
:101CB000880F991F0A94E2F780239123892B49F416
:101CC000219790F7B12C8B2DCDB7DEB7E9E00C94BE
:101CD0004731B7018C2F8BDEA9DE019789F3F3CF53
:101CE000CF93DF93EC01CADFBE0181DE9FDEDF917F
:101CF000CF9108959A3078F5863068F5E82FF0E0B6
:101D000086E0989FE00DF11D11249E2F977083E0CF
:101D1000F695E7958A95E1F7EE0FFF1FEE0FFF1F8F
:101D2000EE54FB4F50E040E080E0219130E0092E7E
:101D300002C0369527950A94E2F721703327042EC6
:101D400001C0220F0A94EAF7822B4F5F5F4F4430A5
:101D5000510559F7089580E008959A3098F5863036
:101D600088F5E82FF0E086E0989FE00DF11D112442
:101D70008E2F877041E001C0440F8A95EAF783E017
:101D8000F695E7958A95E1F7EE0FFF1FEE0FFF1F1F
:101D9000EE54FB4F30E020E070E05191DF011197ED
:101DA000CB01022E02C0969587950A94E2F78170C6
:101DB00081958527842385278C932F5F3F4F24307F
:101DC000310559F708959093480580934705089584
:101DD000FC0124812223B9F08081918181DF9295D9
:101DE0009F70963091F058F4925F9F70923058F443
:101DF000803F19F030F4883E30F481E008959A5F16
:101E0000F4CF843FD1F380E00895883EB0F3813F62
:101E1000D1F7F3CF292F332740E02115310511F0F9
:101E2000C90148E09C0164E0369527956A95E1F781
:101E30002115310511F04C5FC9019C01369527959C
:101E4000369527952115310511F04E5FC9019695FC
:101E50008795892B09F04F5F842F0895A6E0B0E0A5
:101E6000E4E3FFE00C94313126E0FC01DE01119641
:101E700001900D922A95E1F7FC01258189819A81D3
:101E8000222381F0662371F0F9DE182F682F8981F3
:101E90009A8163DF69817A81812FA9DD2696E3E04B
:101EA0000C944D3127DF182FF5CFCF93DF93D82F28
:101EB000C0E067E070E08CEA90E018DA57DACF5FB4
:101EC000DC13F7CFDF91CF910895E6E6F7E080E0ED
:101ED00092E0DF019C011D9221503040E1F7F09328
:101EE0006D09E0936C098FEF9FEF909365078093E6
:101EF00064070895CF93DF93682F81E06A3019F06B
:101F00006D3029F480E058D0DF91CF910895809111
:101F10006C0990916D0926E0FC01A6E6B9E00190FC
:101F20000D922A95E1F7603EE0F126E0FC01119266
:101F30002A95E9F7C0916C09D0916D0946E050E00F
:101F4000BE0186E699E00E94E431892B41F1C65634
:101F5000D740CE0125E0969587952A95E1F721E0B7
:101F600030E0A90102C0440F551F8A95E2F7CA016B
:101F70004091640750916507842B952B259645E089
:101F8000D695C7954A95E1F702C0220F331FCA952F
:101F9000E2F7822B932B9093650780936407E6D931
:101FA000B3CFF6E06F9FB00111246F53794F46E035
:101FB00050E00E94DB31BECFCF93382FE0916C0907
:101FC000F0916D09E656F74020915C07622F70E0B2
:101FD000CF010E940E31281B822F332359F066E077
:101FE0000E945931C82FC15010F4CF91089580E25A
:101FF00081DFF9CF9F01280F311D2115324018F0E4
:1020000080E0F0E0E0E08E0F9F2F911D8A59984FFD
:1020100090936D0980936C09E8CF2091E40480913E
:10202000DB04282B8091DA04882381F0282B30E010
:102030008AEA94E0FC014191CF0141113F5FF4E055
:10204000803B9F07B9F731111092DA042093A8045E
:1020500048E050E06CED74E088EA94E00E94E431DE
:10206000892BB9F088E0E8EAF4E0ACEDB4E0019047
:102070000D928A95E1F7E091E606F091E706309738
:1020800041F00280F381E02D309719F088EA94E066
:1020900009950895882311F0E0DDBFCF08958823C6
:1020A00031F09091E404982B9093E404B6CF089516
:1020B0000F931F93CF93DF93EC01FC01019000205D
:1020C000E9F78F0101501109C017D10728F0DF91FE
:1020D000CF911F910F91089589910CDFF5CFE8DF23
:1020E00081E06ACFCF93DF93EC0182E00E946C061F
:1020F000CE0190DE482F50E070E060E0483051059E
:102100006105710560F4440F551F4D595C4FFA018C
:1021100080819181E4DFCE01DF91CF91089590E03D
:102120000E941F06F7CFDEDF90934C0580934B058E
:10213000089521E030E002C0220F331F8A95E2F7B4
:102140002095309580914B0590914C0582239323E7
:10215000EACF9091D904809589238093D904282FC0
:10216000277061F4891751F090914A0592FF06C0DB
:10217000869586958695DDDF1092D904089521E035
:1021800030E002C0220F331F8A95E2F780914B05A1
:1021900090914C05822B932BC6CF8091550780934D
:1021A000C305809156078093C2058091570780939D
:1021B000C10580915407869586958093C00586E079
:1021C0000E946C0684ED92E073DF8091C30590E07D
:1021D0000E941F06FC01019620812032D9F3CF0115
:1021E00067DF87E00E946C0687ED92E061DF8091F7
:1021F000C20590E00E941F06FC010196208120325A
:10220000D9F3CF016CDF88E00E946C068AED92E082
:102210004FDF8091C10590E00E941F06FC010196EE
:1022200020812032D9F3CF015ADF89E00E946C0669
:102230008DED92E03DDF8091C00590E00E941F0689
:10224000FC01019620812032D9F3CF0148CF0F93B2
:102250001F93CF93DF938B01EA0190910C07943089
:1022600061F58093E9008FEF9091E800815095FD32
:1022700006C095ED9A95F1F700008111F5CF809198
:10228000E80085FF1AC00E94E806811111C0809104
:10229000E80085FD06C08091E8008E778093E80015
:1022A000F2CFF80181918F018093F100219779F7A6
:1022B0008091E8008E778093E800DF91CF911F91A5
:1022C0000F91089543E050E0BC0182E0C0CF46E0AA
:1022D00050E0BC0182E0BBCFCF93DF93EC0148E03C
:1022E00050E0BC0181E0B3DF88E0FE01A8EFB6E07A
:1022F00001900D928A95E1F7DF91CF9108953BB15E
:10230000377F2BB128604FB7F89487EF95E0FC0139
:102310005191CF0168E02BB9000000C057FF3BB9D5
:10232000550F000000C000C000C03BB900C06A9556
:1023300091F7F6E0853D9F0751F74FBF8FE594E099
:102340000197F1F700C000000895B0E0A0E0EBEACB
:10235000F1E10C942A317C015B016A018091360520
:1023600001E010E08A3010F40AE010E0C1E0D0E0B3
:10237000B501C701F6010995811104C021960C171A
:102380001D072CF4CDB7DEB7EAE00C944631CC9FA4
:102390009001CD9F300D300D112490E080E045E399
:1023A0004A95F1F70000019682179307C1F7E0CF35
:1023B000AB0124E630E0BC0188E70E94E02E21E07A
:1023C000892B09F020E0822F08958091EB059091F0
:1023D000EE05911103C091E089270895882361F0EB
:1023E00062E070E08FE395E0E3DF811103C080914C
:1023F000EB0508951092EB058091EB05ECCFCF93A0
:10240000C091EB058091EE058823C9F00E94340845
:10241000605A75418F4F9F4F6093E7057093E805B1
:102420008093E9059093EA05C11107C062E070E06E
:102430008DE395E0BDDF811105C0C091EB058C2FC8
:10244000CF91089581E08093EB05F7CFCF939091E2
:10245000E206911183E08093E50580FD10C080E8DD
:1024600080935C070E946D2E6BE070E082E395E044
:102470009FDF811106C0C0E08C2FCF91089580E2CC
:10248000EFCF8091E50565E070E081FD24C08DE22D
:1024900095E08EDF882379F36DE070E08BE195E0C5
:1024A00087DFC82F882339F30E943408605A7541AA
:1024B0008F4F9F4F6093E7057093E8058093E90580
:1024C0009093EA0502DD81E08093EE058093EB05B1
:1024D0001092E605D1CF88E295E0DBCFCF92DF9274
:1024E000EF92FF92CF937AD96093B4057093B505BC
:1024F0008093B6059093B7052091BC05C0E02111EB
:1025000008C020915407C22FC37019F0C22FC6957E
:10251000C6952091AA012130D1F0222351F022301A
:1025200001F1233011F1CF91FF90EF90DF90CF9028
:10253000089510925F016093B8057093B905809378
:10254000BA059093BB0581E08093AA01ECCF8C2F54
:102550006ED8CC2341F380915F0181500E944C0AD8
:10256000E2CF8C2F0E94600ADECF80915307882330
:1025700051F048E050E067E170E084E597E00E94A8
:10258000173210925307C090B805D090B905E0906B
:10259000BA05F090BB058091E206882379F00E948D
:1025A00034086C197D098E099F0960317105810518
:1025B000910508F4B8CF1092AA01B5CF0FD9F1CF89
:1025C000E4E5F7E089E080838091AD019091AE0170
:1025D000A091AF0181839283A3838FE784838FEFE0
:1025E000858348E050E067E170E0CF010E94173238
:1025F00010925307089590914A0592FB222720F9E3
:10260000281771F080FB92F990934A056091490573
:1026100070914A0584E090E00E94403282E099CDBA
:102620000895CF92DF92EF92FF921F93CF93DF93A3
:1026300000D000D0CDB7DEB7C0902605D0902705DA
:10264000E0902805F09029050E9434086C197D0956
:102650008E099F0911E0643671058105910568F1C5
:10266000BDD86E5F7F4F8F4F9F4F69837A838B8377
:102670009C8380913101909132018D5F9A4F4091FE
:10268000300150E04530510510F044E050E0BE010B
:102690006F5F7F4F0E94F13186E090E00E949E3094
:1026A000182F882351F00E943408609326057093F8
:1026B00027058093280590932905812F0F900F906F
:1026C0000F900F90DF91CF911F91FF90EF90DF90CF
:1026D000CF900895B0E0A0E0E0E7F3E10C9428315A
:1026E000C82F7B01D42F6901FB0180809180A280DB
:1026F000B3800E943408681979098A099B096436F5
:1027000071058105910510F4DD2359F10C2E000CA3
:10271000DD0BFE0183E0EE0FFF1F8A95E1F7E0502D
:10272000FF4F818192818D5F9A4F408150E0041765
:10273000150708F4A801B6010E94F131CE010E94EC
:102740009E30C82F882339F00E943408F701608337
:102750007183828393838C2FCDB7DEB7ECE00C942A
:102760004431C1E0F8CFA1E0B0E0E9EBF3E10C9433
:1027700030318091EB0589832091250590E041E07F
:102780002817190609F440E001E010E09E012F5FD0
:102790003F4F62E375E089E09DDF2196E4E00C9411
:1027A0004C31A1E0B0E0E7EDF3E10C9430318091E1
:1027B000BD05898341E090912405981301C040E054
:1027C00001E010E09E012F5F3F4F6EE275E088E070
:1027D00081DF2196E4E00C944C31A9E0B0E0E3EF16
:1027E000F3E10C94303188E0E4E5F7E0DE01119686
:1027F00001900D928A95E1F78091BC05898749E0A7
:1028000050E06BE175E0CE0101960E94E43141E0B9
:10281000892B09F440E009E010E09E012F5F3F4F53
:102820006AE275E087E056DF2996E4E00C944C31CB
:102830000F931F93CF93DF93EC0145E050E069E0E5
:1028400075E00E94E43141E0892B09F440E005E0A5
:1028500010E09E016AEF74E082E03CDFDF91CF91EF
:102860001F910F910895A1E0B0E0E9E3F4E10C9429
:102870002431D62E4A015901682E880F7708C301EA
:102880000E949E30C82E882309F46AC0C30133E039
:10289000880F991F3A95E1F7FC01E050FF4F438103
:1028A00050E04115510511F041E050E080509F4F3C
:1028B000FC01648175816D5F7A4FCE0101960E94A3
:1028C000F131F40140805180628073800E943408AD
:1028D00064197509860997096436710581059105A2
:1028E00038F4B701C8010E940E0999818917C1F116
:1028F0006D2C0D2C000C7708C3010E949E30C82E51
:10290000811106C0C12C8C2D2196E0E10C94403140
:10291000C30123E0880F991F2A95E1F7FC01E050DD
:10292000FF4F438150E0E416F50608F4A7018050FC
:102930009F4FFC01648175816D5F7A4FC5010E94D4
:10294000F131B701C8010E940E0999818913DACFCC
:102950000E943408F4016083718382839383D3CF10
:10296000A701B801C5010E94F131CDCFA8E0B0E0C8
:10297000ECEBF4E10C942E3188E0E82EF12C0FE022
:1029800015E09E012F5F3F4F4FEF54E064E083E07E
:102990006ADF082F882389F190910E058091FE044B
:1029A000981759F110E0909112058091110589173F
:1029B000F1F0E92FF0E0E95FFA4F848587FB6627A5
:1029C00060F99F5F937090931205909110059F5F3F
:1029D000909310058F770E945109182F8111E3CF32
:1029E00085E090E00E949E30012F082302C0111163
:1029F000F7CF80910E058093FE04802F2896E6E0A5
:102A00000C944A31A5E0B0E0E8E0F5E10C942C31FB
:102A10006B0185E0E82EF12C04E015E09E012F5FAC
:102A20003F4F46EF54E061E080E01DDF882349F02E
:102A300095E0FE013196A1EFB4E001900D929A95D8
:102A4000E1F795E0E1EFF4E0D60101900D929A955F
:102A5000E1F72596E8E00C94483178941F921FB670
:102A60001F9211248F939F93AF93BF938091F3068E
:102A70009091F406A091F506B091F6060196A11D7D
:102A8000B11D8093F3069093F406A093F506B093DE
:102A9000F606BF91AF919F918F911F901FBE1F901F
:102AA00018952FB7F8948091F3069091F406A091B1
:102AB000F506B091F6062FBF0895CF93DF93EC0192
:102AC000F0DF8C1B9D0BDF91CF9108953091F106C3
:102AD0002091ED06321720F42091ED062093F106A7
:102AE0006093EA067093EB068093EC069093ED06F4
:102AF000D8DF909304078093030781E08093020757
:102B000008951F920F920FB60F9211242F933F93A7
:102B10004F935F936F937F938F939F93AF93BF93E5
:102B2000CF93EF93FF938091E10082FF09C08091E2
:102B3000E20082FF05C08091E1008B7F8093E1007D
:102B40008091DA0080FF24C08091D80080FF20C0EF
:102B50008091DA008E7F8093DA008091D90080FF27
:102B6000CFC080E189BD82E189BD09B400FEFDCFFF
:102B700081E080930C078091F706811109C00E94C3
:102B8000C9060E946A078091E20084608093E20097
:102B90008091E10080FF23C08091E20080FF1FC090
:102BA0008091E2008E7F8093E2008091E20080615C
:102BB0008093E2008091D80080628093D80019BC95
:102BC00085E080930C0783E08093A9016091A601C2
:102BD0007091A7018091A8019091A90177DF809160
:102BE000E10084FF39C08091E20084FF35C080E1BC
:102BF00089BD82E189BD99B5892F817090FFFBCF96
:102C00009091D8009F7D9093D8009091E1009F7E95
:102C10009093E1009091E2009F7E9093E20090916A
:102C2000E20091609093E20090910D07992309F4DE
:102C30006DC094E090930C0790910C07943009F4C8
:102C400082E08093A9016091A6017091A701809113
:102C5000A8019091A9013ADF8091E10083FF3EC075
:102C60008091E20083FF3AC08091E100877F8093EA
:102C7000E10082E080930C0710920D078091E10043
:102C80008E7F8093E1008091E2008E7F8093E2004E
:102C90008091E20080618093E20042E060E080E0A9
:102CA0000E9438078091F00088608093F000C1E0B6
:102CB000C093A9016091A6017091A7018091A8011C
:102CC0009091A90103DFC093A8016091A6017091C2
:102CD000A7018091A8019091A901F8DEFF91EF91E1
:102CE000CF91BF91AF919F918F917F916F915F91A4
:102CF0004F913F912F910F900FBE0F901F901895FD
:102D000019BC10920C071092F70642CF9091E30085
:102D100097FD02C0982F8ECF93E08CCFC2DE9C012E
:102D20009091DE068091DF06982B21F03093DB0630
:102D30002093DA069091E0068091E106982B21F02D
:102D40003093D9062093D806E091E606F091E70685
:102D5000309759F00680F781E02D309731F082E00E
:102D60008093DC068CED96E009950895CF93109240
:102D7000E404C6E0EAEAF4E0DF018C2F1D928A95B4
:102D8000E9F790E080E00E94840890E080E00E94F3
:102D90005D081092DB0441D9ECEDF6E0DF011D92F5
:102DA000CA95E9F71092D5061092D6061092D7066A
:102DB000B5DFCF910895AAE2B0E0E1EEF6E10C9420
:102DC0002E318EE097E02091F100FC012193CF019C
:102DD000F7E086319F07B9F780910F07833009F438
:102DE00079C0B8F4813009F450C0823009F4CFC002
:102DF0008091E80083FF57C180910E0790910F07E3
:102E00009A3008F050C1E92FF0E0EA5BFD4C0C94D9
:102E1000B6318A3009F4A1C08B3009F478C089300A
:102E200039F780910E07813219F78091120790913E
:102E300013070297E8F68091E800877F8093E80007
:102E40008091E80082FF41C09091F3008091F200F0
:102E5000029731F48091F100813011F0863069F4ED
:102E60008091F1008093A7016091A6017091A70164
:102E70008091A8019091A90129DE8091E8008B77CB
:102E80008093E8000E941907B3CF80910E07813A22
:102E900009F0AECF8091E800877F8093E8008091B1
:102EA000120790911307892B61F468E088EF96E090
:102EB00070E00E94C4078091E8008B778093E8005F
:102EC00097CF60E090E080E0F3CF80910C07811114
:102ED000B7CF8ECF80910E07813A09F089CF8091CC
:102EE000120790911307892B09F082CF8091E80097
:102EF000877F8093E8008091E80080FFFCCF80917D
:102F0000A8018093F1008091E8008E77B9CF80917D
:102F10000E07813209F06CCF809112079091130750
:102F2000892B09F065CF8091E800877F8093E800C6
:102F30000E94190781E090911007911101C080E073
:102F40008093A8016091A6017091A7018091A801CA
:102F50009091A901BBDD0ADF4BCF80910E07813232
:102F600009F046CF8091E800877F8093E8000E94B7
:102F70001907809111078093A6016091A6017091B5
:102F8000A7018091A8019091A901A0DD31CF809186
:102F90000E07813A09F02CCF8091E800877F80935B
:102FA000E8008091E80080FFFCCF8091A601A9CFC6
:102FB000803899F0823809F076C0809112078F70BE
:102FC000873008F070C08093E9008091EB0085FBAA
:102FD000882780F91092E90006C08091000790913F
:102FE0000107911182609091E800977F9093E8002B
:102FF0008093F1001092F1008091E8008E773BC23F
:10300000882309F428C2823009F04DC0809110074E
:1030100081112CC2809112078F702FEF280F26305C
:1030200008F041C08093E9002091EB0020FF1EC210
:10303000933031F48091EB0080628093EB0016C2F4
:103040009091EB0090619093EB0021E030E001C0A3
:10305000220F8A95EAF72093EA001092EA00809105
:10306000EB008860EACF81111EC0109110071F7716
:103070008091E3008078812B8093E3008091E800C9
:10308000877F8093E8000E9419078091E80080FF05
:10309000FCCF8091E30080688093E30082E011110F
:1030A00083E080930C078091E80083FF0AC0809141
:1030B000E800877F8093E8008091EB008062809336
:1030C000EB00AA96E6E00C944A318058823058F71B
:1030D00080911007909111078C3D23E09207A1F594
:1030E00083E08A838AE289834FB7F894DE011396DE
:1030F00020E03EE051E2E32FF0E050935700E491EE
:1031000020FF03C0E295EF703F5FEF708E2F90E0DD
:10311000EA30C0F0C7968D939D932F5F243159F705
:103120004FBF8091E800877F8093E8006AE270E0FB
:10313000CE0101960E94C4078091E8008B778093AE
:10314000E800B1CFC096E7CF409112075091130726
:10315000292F33272330310539F178F42130310517
:1031600009F4ECC02230310509F09DCF0BE310E0EB
:1031700030E4E32E36E0F32EAEC02132310509F4FF
:10318000CFC02232310509F08ECF4115510509F427
:10319000E3C04130510509F086CF0BE710E051E85C
:1031A000E52E55E0F52E97C099278130910509F459
:1031B0004EC0009709F441C0029709F452C010E0D4
:1031C00000E0F12CE12C40911407509115078091FB
:1031D00006078F5F8093060750930B0740930A07FB
:1031E0004230510509F047C0909107079F5F9093C7
:1031F0000707833008F463C020910907223030F0BC
:103200009091080791118AC08217A9F09091070741
:10321000853008F443C04F3F510509F048C02223D0
:1032200009F447C083E0923008F03EC0809108075F
:10323000982B09F044C081E037C0EDEBF6E0E49153
:103240000E2F10E0EDEBEE2EE6E0FE2EBCCFE5EA11
:10325000F6E0E4910E2F10E075EAE72E76E0F72E07
:10326000B2CFEDE8F6E0E4910E2F10E06DE8E62E27
:1032700066E0F62EA8CF4430510531F4909108074E
:103280009F5F90930807B5CF4F3F510509F0B1CF2D
:10329000909109079F5F90930907ABCF843039F471
:1032A0002111C4CF923029F48093050708C0211161
:1032B000BDCF933021F4809108078130A9F3F1DB71
:1032C000909304078093030781E080930207011520
:1032D000110509F4E8CE8091E800877F8093E8002B
:1032E00080911407909115070817190708F4C80171
:1032F00040E00097C1F5411136C08091E80082FDA1
:103300001BCF80910C07882309F416CF853009F470
:1033100013CF8091E80083FFF0CF0ECF82E0C4CFBF
:103320004115510591F04130510509F0BCCE09E03D
:1033300010E09BE6E92E96E0F92ECDCF02E110E0F9
:103340004BE7E42E46E0F42EC6CF09E010E022E57C
:10335000E22E26E0F22EBFCF04E410E08CEFE82E40
:1033600085E0F82EB8CF20910C07222309F4E4CE93
:10337000253009F4E1CE2091E80023FDDDCE209137
:10338000E80022FDBACF2091E80020FFB2CF3091B3
:10339000F3002091F200009719F02830310558F021
:1033A00041E02830310509F040E02091E8002E7717
:1033B0002093E8009ECFF70144914093F100FFEF86
:1033C000EF1AFF0A01972F5F3F4FE5CF803809F0D2
:1033D0006ACE8091E800877F8093E80080910D0796
:1033E0008093F10009CE81115ECE1091100712304A
:1033F00008F059CE8091E800877F8093E800109311
:103400000D070E941907112311F084E005C0809177
:10341000E30087FDFACF81E080930C0742E061EC86
:1034200081E00E94380742E261EC82E00E943807A6
:1034300080910C07843069F081E08093A90160914C
:10344000A6017091A7018091A8019091A9013EDB8E
:103450002ACE82E0F2CF80911007813009F023CE8E
:1034600081E0933009F080E0809301071092E90039
:103470008091E800877F8093E8000E94190713CEAF
:103480001F920F920FB60F9211242F933F934F93D9
:103490005F936F937F938F939F93AF93BF93CF93DC
:1034A000DF93EF93FF93D091E900DF708091EC0000
:1034B000C82FC17080FDC0E81092E9008091F00033
:1034C000877F8093F000789476DC1092E9008091F9
:1034D000F00088608093F000CD2BCF70C093E9009E
:1034E000FF91EF91DF91CF91BF91AF919F918F911C
:1034F0007F916F915F914F913F912F910F900FBEF0
:103500000F901F90189532DC2FEF84E39CE0215040
:1035100080409040E1F700C0000088E19AE00FB6DB
:10352000F894A895809360000FBE90936000FFCF41
:10353000662309F45BC08D3C31F40E94E00881955C
:103540008093DF06EBCB8E3C19F40E94E008F8CFA5
:103550008F3C31F40E94E00881958093DE06F2CF23
:10356000803D19F40E94E008F8CF893D29F40E94BB
:10357000BE088093E006E6CF8A3D21F40E94BE0893
:103580008195F7CF8B3D31F40E94BE0881958093E1
:10359000E106D8CF8C3D19F40E94BE08F8CF9FE217
:1035A000980F983070F4815D990B21E030E001C0F4
:1035B000220F8A95EAF78091DD06822B8093DD0643
:1035C000C1CF8D3D31F48091D70681608093D706BD
:1035D000B9CF8E3D21F48091D7068260F7CF8F3D21
:1035E00009F0B0CF8091D7068460F0CF4091DE061D
:1035F0008D3C59F48091DF0687FF0DC01092DF06E5
:1036000041110BC01092D50608C08E3C81F4809108
:10361000DF0618169CF3442381F08091E006909118
:10362000E106892B09F08ECF1092D6068BCF8F3C06
:1036300049F447FFF0CF1092DE068091DF0681113A
:10364000ECCFE0CF803D19F41416ACF3E4CF9091A9
:10365000E006893D29F41916F4F61092E006DBCF56
:103660008A3D19F497FFD7CFF8CF9091E1068B3DB3
:1036700029F497FFD0CF1092E106CDCF8C3D19F4FD
:103680001916CCF3C8CF9FE2980F983090F4815D63
:10369000990B21E030E0B90102C0660F771F8A95CF
:1036A000E2F7CB0180959091DD0689238093DD06BA
:1036B000B2CF8D3D31F48091D7068E7F8093D706AF
:1036C000AACF8E3D21F48091D7068D7FF7CF8F3D15
:1036D00009F0A1CF8091D7068B7FF0CF8823B1F17D
:1036E0009CEF980F913A70F4EAEAF4E09191891313
:1036F00003C0DF0111971C9294E0E03BF907B1F79A
:103700000C940D1090E2980F983050F4877091E06F
:1037100001C0990F8A95EAF7892F0E942D0EF0CFEC
:103720009BE5980F933020F490E080E00C9484089F
:1037300098E5980F9B3120F490E080E00C945D08B0
:1037400093E3980F933110F460E0F2CE0895CF9395
:10375000C82F8823B1F08CEF8C0F813A00F5EAEA8C
:10376000F4E080EB94E0DF012D91C21761F08A173D
:103770009B07D1F76C2F88EA94E00E9443080E94CF
:103780000D10CF9108952191C21303C0DF0111974D
:103790001C928E179F07B9F70E940D10EBCF80E2A5
:1037A0008C0F883068F4C77021E030E001C0220F30
:1037B000CA95EAF78091E404822B8093E404DFCF7A
:1037C000EBE5EC0FE33040F4F0E0E35EFC4F80818A
:1037D00090E00E948408D5CFE8E5EC0FEB3150F47F
:1037E000F0E0EE0FFF1FE05EFC4F808191810E94B0
:1037F0005D08C7CF83E38C0F833118F661E08C2F0F
:1038000097DEBFCFEF92FF920F931F93CF93DF937B
:10381000C62FD42F022FFC0185818823A1F060934D
:1038200052073FD99093510780935007C77081E0AA
:1038300001C0880FCA95EAF70E944F10CDB7DEB7D6
:10384000E6E00C944A3180915207681334C0E0904E
:103850005007F090510725D98E199F09883C910592
:1038600050F510E21D0FCD17B9F080E28C0F8830B3
:1038700040F4C77081E001C0880FCA95EAF70E9442
:103880004A10183048F481E09D2F977001C0880FCE
:103890009A95EAF70E944F10802F59DF802F1EDF84
:1038A000183060F6D77081E001C0880FDA95EAF72A
:1038B0000E944A10C3CFC77081E001C0880FCA952B
:1038C000EAF7F6CF80E09091F2052091F1052917F3
:1038D00031F1E92FF0E0ED50FA4F20819F5F9370B6
:1038E0009093F2058091F0058F5F8093F00527FD9E
:1038F0000AC08AEA2CDF8FE39CE90197F1F700C048
:1039000000008AEA09C089EA22DF8FE39CE9019777
:10391000F1F700C0000089EAE1DE81E0D4CF08952C
:10392000B0E0A0E0E6E9FCE10C942A317C01FC0166
:103930008481882309F452C061E0C7010E942E0FE0
:10394000EC01F70125812223F9F09A9581159F4416
:1039500048F5CE019927AC01445051094432510534
:1039600018F08B970E9780F4E0916805F0E0EE0F69
:10397000FF1FE359FA4F808191818F3F3FE7930703
:1039800019F0019691838083D0939C01C0939B0191
:10399000FE01E851FC47E730F105E0F5E05BFD4C46
:1039A0000C94B63190E080E0CF3FD10509F098F655
:1039B000CE01D1CF26E241EE61EEC70123DF809137
:1039C000D904877059F0F7018581882339F08091F7
:1039D0004A0582FF03C082E00E94A910CDB7DEB77E
:1039E000EAE00C94463127E245EE65EEE6CF26E2AA
:1039F00041EE60EEE2CF27E245EE64EEDECF26E256
:103A000041EE62EEDACF27E245EE66EED6CF28E24F
:103A100041E0EBCF222309F4E1C310925207CE011B
:103A20009057839708F0C4C384E090E00E9412325C
:103A300090934A0580934905FE01E150F047E23238
:103A4000F10520F4E95AFD4C0C94B63180914905FA
:103A500081608093490592C080914A058860809377
:103A60004A058CC0809149058260F3CF8091490559
:103A70008460EFCF809149058860EBCF80914A0543
:103A80008160EDCF80914A058260E9CF8091490540
:103A90008061DFCF809149058062DBCF809149054D
:103AA0008064D7CF63D9809149058068D2CF809157
:103AB00049058C60CECF80914A058360D0CF80913C
:103AC00049058E7FC6CF80914A05877FC8CF8091F8
:103AD00049058D7FBECF809149058B7FBACF8091FC
:103AE0004905877FB6CF80914A058E7FB8CF8091F8
:103AF0004A058D7FB4CF809149058F7EAACF8091F2
:103B000049058F7DA6CF809149058F7BA2CF2ED905
:103B1000809149058F779DCF80914905837F99CF0B
:103B200080914A058C7F9BCF8091490582FB992724
:103B300090F921E0922790FB82F990FB83F989CFDD
:103B400080914A05982F909591708E7F892B90FBDC
:103B500081F985CF90914905892F8F7B96FF8064ED
:103B600078CF04D990914905892F97FB87F9805820
:103B700070CF61E08EE090E00E94263260914905AE
:103B800070914A0584E090E00E944032EFD817CF50
:103B900060E0F0CF90914905892F8F7E94FF80617E
:103BA00058CF90914905892F8E7F90FF816051CF2A
:103BB00090914A05892F877F93FF886050CF85E3D6
:103BC00016C30E943E0AFBCE8823A9F10E942D0A4B
:103BD000F6CE8823A9F10E941D0AF1CE8823A9F10F
:103BE0000E94070AECCE8823A9F10E94F109E7CED2
:103BF0008823A9F10E94D509E2CE809154078370F1
:103C000011F41092AA01809154078C7F81608093F7
:103C1000540780915307816080935307D0CE8091E1
:103C20005407837011F01092AA01809154078C7F81
:103C3000EECF882359F20E94350AC1CE882359F26B
:103C40000E94250ABCCE882359F20E94120AB7CEE0
:103C5000882359F20E94FC09B2CE882359F20E94AF
:103C6000E309ADCECE01805E92458097A8F4211184
:103C700015C0CF7181E090E0FC0102C0EE0FFF1F84
:103C8000CA95E2F7EF016E2F83E090E00E942632A2
:103C9000CE010E94E30E93CE222381F0C330FCE7D5
:103CA000DF0709F477C008F05AC0C1153CE7D30715
:103CB00009F463C0C130DC4709F472C0F7018581A3
:103CC000C081D181882309F478C0CE010E943E0EC4
:103CD000182F682FCE010E94AD0EBE01812F0E94C9
:103CE000F70C0E94160DD82FC92FA82EF701C580FA
:103CF000B680B2949FE0B9228091D904877001F117
:103D00000C2DCC20F1F08C2F807F803469F080E284
:103D10008D0F8830A8F08C2F807E803229F4F1E05E
:103D2000FD1770F4BB2061F080914A0582FF08C046
:103D300082E00E94A9108091D904877001E009F007
:103D400000E0DC2ED2948FE0D8222BE02D1508F471
:103D500092C0ED2DF0E0E758FD4C0C94B631CB3518
:103D60009CE7D90741F1CC35ECE7DE07D1F0CA3545
:103D7000DC4709F0A3CF81E01BC00E94B6162FEFED
:103D800034E38CE0215030408040E1F700C0000077
:103D90000E9423086FEF7FEF90E080E00E944032A6
:103DA000B2DB80914A0582FB882780F991E0892760
:103DB0000E94FB1283CF80E0FBCFCE010E947A0EDF
:103DC000182F8BCF1C2F1F70C07F11F01295107F02
:103DD000CC20B9F0112369F080E28D0F883010F00B
:103DE000A11009C08091E404182B1093E4040E94F0
:103DF0000D108D2F3FC08091DB04182B1093DB0436
:103E0000F6CF8D2F6BDC1123B1F1D05ED83010F0DE
:103E1000A11004C0812F0E942D0E06C01095809124
:103E2000DB0418231093DB040E940D1024C01C2F08
:103E30001F70C07FC03211F01295107FAA2051F080
:103E400031E0A31609F457C0CC2009F463C0BB20AD
:103E500041F1CFCF80914A0582FD1FC0CC20C1F037
:103E6000112339F08091E404182B1093E4040E948C
:103E70000D1080E06CDCED2DE850FF0B349708F05E
:103E80007FC10E94AB0860E0C7010E942E0FA6CD43
:103E900080E024DC112379F3BDCFCC2099F0B11060
:103EA00004C0812F0E944F10E6CF81E0B812E3CF0B
:103EB0008091DA04912F98231917E9F2182B1093A7
:103EC000DA04D9CFB110D7CF812F0E944A10909138
:103ED000DA04812F892329F0812F8095892380930B
:103EE000DA048091B104912F982329F210951823B8
:103EF0001093B104C0CFCC2029F095E09B1508F4B5
:103F0000BACFCFCFE4E0EB1508F4B5CF812F0E94F4
:103F10004A10B1CFBB20D1F3F9E3AF122BC12FEF81
:103F200037EE83E0215030408040E1F700C00000D0
:103F300021C18C2F86958695837069F0813009F0B8
:103F40009ACF8D2F9C2F9370C11002C080E090E01B
:103F50000E945D0890CF8D2F9C2F9370C11002C0DE
:103F600080E090E00E94840886CF6C2D8D2FE0DAEF
:103F700082CF8C2F837009F03FC0C1107CCF4D2FB2
:103F8000429546954770440F440F2D2F2F7030E017
:103F9000042E02C0220F331F0A94E2F790E080E063
:103FA000D4FF09C08FE090E002C0880F991F4A95A6
:103FB000E2F780959095C695C695C370C23099F08A
:103FC00078F44091470550914805C13039F0822B73
:103FD000932B842395230E94E30E4DCF242B352B66
:103FE000822B932BF8CF822B932B20914705309176
:103FF000480582279327EFCF8695CC2011F08C2F90
:104000008170882309F437CF4D2F4295469547702C
:10401000440F440F2D2F2F7030E0042E02C0220FCA
:10402000331F0A94E2F790E080E0D4FF09C08FE0EC
:1040300090E002C0880F991F4A95E2F7809590950D
:10404000C695C695C370C23099F078F440914B057F
:1040500050914C05C13039F0822B932B842395234A
:104060000E94931008CF242B352B822B932BF8CF53
:10407000822B932B20914B0530914C05822793275F
:10408000EFCFCF70CC2029F08C2F0E94BF108D2F46
:1040900009CF8D2F0E944A108C2F0E949910EBCED1
:1040A0008D2F92EFA91699F19A1570F0E0EFAE16E8
:1040B000D1F0F1EFAF1691F0CC2009F456C0B11059
:1040C00098CE8C2F8F7127C023EFA21639F134EFD1
:1040D000A312F2CF90914A0592FD2EC08C2F8F71C2
:1040E000CC20D9F218C0CC2069F084E08B1508F4FC
:1040F000C2CECF7181E090E002C0880F991FCA95AF
:10410000E2F7B8CF95E09B1508F4B5CEF2CF8C2F2F
:104110008F71C110C2CF0E94BF10ADCE90E080E081
:10412000CC2009F49DCFCF7181E090E002C0880FD0
:10413000991FCA95E2F794CFCC2061F08C2F8F7134
:1041400092FFE9CFE8E08E9F900111242360209335
:10415000D904E1CF81E00E94A910F1E0FB1508F03D
:104160008ACE82E00E94A91086CEBB2031F089332E
:1041700009F4D5CE8D2FB2DA7ECE8C2F8F718DCFF4
:10418000002309F480CE8091D90480FD7CCEF70114
:1041900015828695869586950E94BF10C701C0DB63
:1041A0008091D9048695869586950E9499106BCE4C
:1041B0008091E404C631FCE7DF0739F58A7A91E0A3
:1041C00009F490E09093B00469E2811165E388EA14
:1041D00094E00E9443080E940D10F1CBC6313CE7E9
:1041E000D307F9F48091B0048111E9CC89E2EAEABD
:1041F000F4E020EB34E09191891303C0DF011197C3
:104200001C922E173F07B9F7E6CF8272FE01E052EB
:10421000F847EB30F10508F025CDEB57FD4C0C9439
:10422000B6318091E4048272FE01E054F847ED302B
:10423000F10508F017CDE057FD4C0C94B631CF9343
:10424000DF938091D804807F09F04CC08091D7041F
:10425000882309F447C0E0914F0750911607C09199
:10426000D304D091D2046091D4047091D50447E076
:104270005E17C1F18E2F90E0E49FF0011124E95EFA
:10428000F84F2481222389F1489FF001499FF00DC6
:104290001124DF01A95EB84F11962C9111972C13B0
:1042A00024C02C912D1321C015962C911597211106
:1042B0001CC012962D913C91261B370B283C3105D2
:1042C000A0F48091D8048F7080618093D804E35E5D
:1042D000F84F80818F708061808382ED94E020DBD5
:1042E0000E94340EDF91CF910895FC013196E77062
:1042F000BFCFA4E1B0E0EFE7F1E20C9428318C01EC
:1043000086E0F801DE011F9601900D928A95E1F793
:10431000F8018481E58092EDA92E94E0B92E909168
:10432000D604911126C0882309F1EE20E9F0C801D6
:104330000E94E80EF82E8823B9F087E0F801D50135
:1043400001900D928A95E1F78091D604813031F485
:104350008091D2049091D3040E94700E70DF8F2D53
:104360006496ECE00C944431C801DADAFF24F3944B
:10437000F6CFD080C18082809380F090D7042091C6
:10438000D4043091D504A401421B530BFF2009F43F
:10439000D3C0483C510508F08EC0882301F39091AA
:1043A000D3048091D804282F207F09F054C0C9126B
:1043B00013C09091D204D9120FC0E11046C08F7083
:1043C00080618093D80482ED94E0AADA8091D804C9
:1043D000F8018683F12CC3CFE11037C06C2D8D2DF1
:1043E0000E94AA066C2D8D2D0E94AA06E82E81112E
:1043F000F1CFDF86C88A8F8598890E94700E292F99
:1044000022952F70243058F49F70223080F0992329
:1044100091F0F8019681907F71F4FE2CA0CF2A5F75
:104420002F70223060F0C8017BDAEF2CF6CF992391
:1044300011F0882391F3805E883078F3F4CF803FC9
:1044400060F3815F833078F7E8CF8091D804816092
:104450008093D804BFCFC91207C09091D204D9125B
:1044600003C0EE2009F489C0C8010E94E80E882329
:1044700009F47ACFEE2009F477CF8091D804803206
:1044800080F02091D2043091D304398728879B860D
:104490008A869091D6049C871D868E87CE010896C9
:1044A0003FDA87E0F801A2EDB4E001900D928A9521
:1044B000E1F7C5DE5BCF9091D804292F207F49F426
:1044C00082ED94E02DDA87E0F50111928A95E9F703
:1044D00081CF882309F443CF8091D3048C110FC07E
:1044E0008091D204D8120BC0E11009C09683C80194
:1044F00017DA87E0F50111928A95E9F730CFC80104
:104500000E94E80E882309F42FCFEE2009F42CCF67
:104510008091D804803228F22091D2043091D304C3
:104520003A8329839C828B829091D6049D831E823C
:104530008F83CE010196B4CF483C5105D0F6882335
:1045400009F414CFFE2CEE2009F40ECF8091D30491
:104550008C111FC08091D204D8121BC08091D80446
:1045600080FD0EC0982F907F59F08683903F31F0E8
:10457000982F907F905F8F70892B8683C801D0D948
:1045800087E0F801A2EDB4E001900D928A95E1F781
:10459000E6CEC8010E94E80E811183CF8091D80435
:1045A00081608093D804C801BBD9D9CEABE1B0E01B
:1045B000ECEDF2E20C9431314E8B5F8B688F798F8A
:1045C0008A8F9B8F91111092DB041D8A86E0FE0179
:1045D0007696DE011F9601900D928A95E1F78B8900
:1045E000882351F061E0CE010F960E942E0F61E00A
:1045F000CE010F960E942E0F87E0FE013F96DE014E
:10460000189601900D928A95E1F7CE01089671DE19
:1046100081112AC087E0FE013896DE0111960190D3
:104620000D928A95E1F78C858823F1F02091160789
:1046300030E0C90101968770992740914F074817CC
:104640001906E9F097E0929FD001939FB00D1124D5
:10465000A95EB84FFE01319601900D929A95E1F74F
:10466000809316070E94340E17E080914F079091B7
:104670001607891312C06B96E3E00C944D310E942B
:10468000B6161092160710924F0787E0E2EDF4E09D
:10469000DF011D928A95E9F7E7CF819FC0011124C0
:1046A000895E984F26DE882331F380914F0790E092
:1046B00001968770992780934F07D7CF2F923F920B
:1046C0005F926F927F928F929F92AF92BF92CF92A2
:1046D000DF92EF92FF920F931F93CF93DF9380911E
:1046E000EE05882309F45AC0C091EC05D091ED0580
:1046F0000E9451158C1B9D0BC29780F10E94511591
:104700009093ED058093EC0580E00E946C0680910B
:10471000E206882309F45FC1C0919B01D0919C01FE
:1047200080919D0190919E018C179D07B9F086E0C4
:104730000E946C06C933D10508F042C0CE59DE4F45
:1047400088810E947A0F81E00E94DC0F80919B019A
:1047500090919C0190939E0180939D0180916407AC
:1047600090916507892B09F0B3C18091EB058823EF
:10477000A9F00E9434080091E7051091E805209106
:10478000E9053091EA05601B710B820B930B6F3FBB
:104790007F4F8F4F9F4710F40E94E511DF91CF911B
:1047A0001F910F91FF90EF90DF90CF90BF90AF904F
:1047B0009F908F907F906F905F903F902F90089583
:1047C000C11523E5D20708F088C08CE392E0C03E13
:1047D00062E5D60798F5C11580E4D80708F04FC008
:1047E00085E092E0C115A0E2DA0740F589ED91E09D
:1047F000C93AD10519F128F582EC91E0C834D10508
:10480000E9F068F48CEB91E0C933D105B9F08FE998
:1048100092E0C734D10591F085EB91E00FC08EECAA
:1048200091E0C335D10551F083ED91E0C83AD1054F
:1048300029F089EC91E0CC34D10571F70E946F101A
:1048400085CF82EF91E0CD3AD105C1F368F486EED1
:1048500091E0CB3AD10591F380EE91E0CC3AD105CD
:1048600068F38CEE91E0EACF88EF91E0CE3AD10583
:1048700029F38EEF91E0C115D14000F7CDCFC034C0
:10488000E2E5DE07A0F48DE192E0C032F2E5DF0759
:10489000A8F687E192E0C11522E5D20778F68BE011
:1048A00092E0C115D04550F281E192E0C7CFC03807
:1048B00082E5D80748F483E292E0C036D24508F496
:1048C000BDCF89E292E0BACF86E392E0C03CD24508
:1048D00008F0B4CF8FE292E0B1CFC03CE4E7DE074E
:1048E000D8F58CE692E0C038F4E7DF0708F0A6CFF1
:1048F000C11522E7D20700F586E592E0C11561E710
:10490000D60708F09BCFC11588E5D80770F489E475
:1049100092E0C115A7E5DA0708F090CF83E492E0B2
:10492000C115D64508F08ACF77CF8FE492E0C11544
:10493000D04708F083CF70CF86E692E0C034F4E72A
:10494000DF0708F07BCF8CE592E0C115D44708F46F
:1049500075CF81E692E072CFC11569E7D607E8F41A
:10496000C11588E7D807A0F5C038A7E7DA0770F4C3
:104970008AE792E0C115B7E7DB0708F05FCF83E76E
:1049800092E0C115D54708F459CF46CF81E892E0AF
:10499000C03CD74708F452CF3FCFC0342EE7D207F0
:1049A00070F485E992E0C1156EE7D60708F046CFAE
:1049B000C115DC4708F430CF8EE892E03FCF80EBA2
:1049C00091E0C115D04808F039CF89E992E036CF9F
:1049D00087E892E033CF8091C405811140C00E94E6
:1049E0003408693873418105910508F4B7CE81E038
:1049F0008093C40583E00E9426120E94650F80E028
:104A00000E946C0680EE92E00E946F1083E00E948C
:104A1000550F80E00E94DC0F8091BD0590E00E9460
:104A20001F06FC01019620812032D9F3CF010E949C
:104A30006F1084E00E946C0684EE92E00E946F107A
:104A400083E00E94550F0E94CD108DE00E946C06FD
:104A500060E470E081E495E00E9476097FCE909159
:104A6000C30580915507981313C09091C20580919A
:104A7000560798130DC09091C10580915707981360
:104A800007C080915407869586959091C00598132C
:104A90000E94CD10C091BD05D0E08091BE059091DF
:104AA000BF05C817D90709F459CED093BF05C093E5
:104AB000BE0582E00E946C06CE010E941F06FC012A
:104AC000019620812032D9F3CF010E946F1046CE8B
:104AD0008091EE05882309F448CE8091E605811186
:104AE00044CE0E94FF112091640730916507211583
:104AF000310509F43ACE80E041E050E0082F10E0A3
:104B00001A01082E02C0220C331C0A94E2F7B101EC
:104B100062237323672B11F48F5FF0CF9091E5052B
:104B200090FF95C0880F880F880F8093A101109285
:104B3000A401895F8093A20183E08093A50124E60C
:104B400030E047E050E06FE971E088E70E94A12E75
:104B5000892B09F00ACEA80125E0440F551F2A959C
:104B6000E1F78091E50580FF84C0E5ECF5E080E2A7
:104B7000EF0119928A95E9F7A1EAB4E00DE914E092
:104B800085EAC82E84E0D82E97E0592E77247394B6
:104B90008D91F80121918F01240F352F311D2A5954
:104BA000384FE82FF0E0EB53FA4F90E080E0652CAF
:104BB000681A872C082E01C0880C0A94EAF779013C
:104BC000A12CE701B9907E01B820662D6A196770A3
:104BD000962E062E000C770BDB2D01C0DD0F9A946C
:104BE000EAF77195619571096770772701C0B694EE
:104BF0006A95EAF7BD2A6081962E9B289082A3943D
:104C000068E0A612DECF019631968830910579F6DC
:104C1000CA16DB0609F0BCCF04E610E020E230E063
:104C200045EC55E060E488E70E94212F892B09F0CC
:104C30009CCDE101C095D095809164079091650766
:104C4000C823D923D0936507C09364078ECD82957E
:104C5000880F80768093A101980136952795369527
:104C600027952093A401815E8093A2012093A50142
:104C700066CF4A59584F04E610E020E230E0D2CF28
:104C8000AFE0B0E0E6E4F6E20C9427318E010F5F6E
:104C90001F4F8AE0F80111928A95E9F788E5C82E3E
:104CA00083E0D82EF12CE12CAA24A394B12C23E686
:104CB000822E23E0922EF60181916F018F3F09F43D
:104CC00042C0F894E82FE295EF70F0E021A18F70D8
:104CD000A50102C0440F551F8A95E2F7CA01922F21
:104CE000982B91A392A18095892382A3789400C0E8
:104CF000EDE5F3E0712C31E021912F3F09F4B9C0CB
:104D0000A22FA295AF70B0E090968C9190E02F709A
:104D100002C0959587952A95E2F780FDAAC0832F5A
:104D2000782A330F8E169F0639F7F6013197808166
:104D30008F3F11F00E94D70B50EA5A95F1F7F80116
:104D4000EE0DFF1D70828FEFE81AF80A95E0E91664
:104D5000F10409F0B0CF4AE050E0B8018BE395E0F0
:104D60000E94E431009741F02AE0F801ABE3B5E09E
:104D700001900D922A95E1F70091460510E0035B42
:104D80001A4F892B09F477C081E08093E9040E94CF
:104D900051159093E8048093E704D12CC090E2066B
:104DA000CC2009F4C3C07E01EBE0EE0EF11C85E0DF
:104DB000F70111928A95E9F7809136058A3008F05B
:104DC00080C042E055E1B701C8010E94A5118823C7
:104DD00009F49BC048E154E1B701C8010E94A51144
:104DE000882309F492C046EB54E1B701C8010E9440
:104DF000A511882309F489C041E153E1B701C80135
:104E00000E94A511882309F480C04DEE53E1B7013B
:104E1000C8010E94A511882309F477C041ED53E130
:104E2000B701C8010E94A511882309F46EC043EBA5
:104E300053E1B701C8010E94A511882309F465C098
:104E4000109236058091450590E045E050E0B701AD
:104E5000835B9A4F0E94E43121E02093F004892B78
:104E600009F046C0C12C8C2D8D292F96EDE00C94B5
:104E7000433180E055CFD090E904DD2009F48DCF97
:104E8000E090E704F090E8040E9451158E199F0904
:104E9000059708F482CF45E050E06BE375E0C80168
:104EA0000E94E431892B59F085E0EBE3F5E0D8016D
:104EB00001900D928A95E1F71092E9046FCFD12C01
:104EC000FBCFA090EA04B090EB040E9451158A1920
:104ED0009B09843F914008F074CF8091F0048823AF
:104EE00009F285E0F70111928A95E9F71092F00432
:104EF000A0914505B0E0A35BBA4F85E0FE013B966B
:104F000001900D928A95E1F7AECF809136058F3FE3
:104F100031F08F5F809336058A3008F493CF0E947A
:104F200051159093EB048093EA04D7CFE0904505A8
:104F3000F12CA701435B5A4F7A0185E0F801A4E008
:104F4000B5E001900D928A95E1F765E070E084E0AC
:104F500095E00E940E098093030585E0E9E0F5E005
:104F6000D70101900D928A95E1F788E0EFEEF5E028
:104F7000AFE0B5E001900D928A95E1F768E070E04E
:104F80008FE095E00E940E0980930E058090170532
:104F900090901805A0901905B0901A058091EC0426
:104FA0009091ED04A091EE04B091EF04881699065B
:104FB000AA06BB06B1F08092EC049092ED04A09298
:104FC000EE04B092EF040E943408861A970AA80AE9
:104FD000B90A8092370590923805A0923905B092AF
:104FE0003A0588E0EBE1F5E0A4E5B7E001900D9229
:104FF0008A95E1F710912305112349F08091BC05B2
:10500000811105C00E94170B80E00E94600A109376
:10501000BC05809124058093BD05809125058823DA
:1050200019F00E94FF111FCF0E94E5111CCFA6E0CE
:10503000B0E0EDE1F8E20C9430310E9451158C01A2
:105040008091E5049091E6048017910779F0198228
:105050001A820E945115682F49815A81792F80E068
:1050600090E0A4DA1093E6040093E5042696E4E0C9
:105070000C944C311F921FB61F9211248F939F9353
:10508000AF93BF938091F206811113C08091F30614
:105090009091F406A091F506B091F6064196A11DF7
:1050A000B11D8093F3069093F406A093F506B09398
:1050B000F606BF91AF919F918F911F901FBE1F90D9
:1050C0001895CDB7DEB72D970FB6F894DEBF0FBE9B
:1050D000CDBF85B7806885BF85B7806885BF84B739
:1050E000877F84BF0FB6F894A8958091600088618F
:1050F00080936000109260000FBE80E890E00FB6D1
:10510000F89480936100909361000FBE81E08093DA
:10511000A9016091A6017091A7018091A8019091C9
:10512000A9010E94661581ED9BE09093A7048093EE
:10513000A6040E94C9060E946A078091E20084606A
:105140008093E200789480910C078823A1F010915D
:10515000E9001F709091EC00892F817090FD80E82C
:10516000182B1092E9008091E80083FD0E94DB1665
:105170001F701093E90082E084BD93E095BD9AEF23
:1051800097BD80936E0010923705109238051092EB
:10519000390510923A058091D80080618093D8003B
:1051A0002AE12A95F1F700C08091D900182F1170DB
:1051B00080FD04C00E94C90610920C071093E206FD
:1051C0001093E306109350011111D5D6EFEEF5E0E0
:1051D00088E0DF011D928A95E9F78091500191E006
:1051E00089278093A105809150019093A405809117
:1051F000500160E080E00E943E0961E080E00E9492
:105200003E09EFE8F1E03197F1F700C0000010E04F
:105210008091A405181708F497C0809150018091DF
:10522000500195E0811190E09093460585E0891B3F
:105230008093450508E513E0D8018D918D018F3FDE
:1052400011F00E94D70BB3E00D351B07A9F70DE550
:1052500013E0F80181918F018F3F11F00E94D70B6D
:10526000F3E003361F07A9F78AE0EDE4F5E0DF017C
:10527000282F1D922A95E9F7EBE3F5E0DF011D9257
:105280008A95E9F790E080E00E941232833E9E4FBB
:10529000B1F163EE7EEF90E080E00E94403260E08A
:1052A00082E090E00E94263281E090E090934805F1
:1052B0008093470561E083E090E00E94263260E041
:1052C00074E184E090E00E9440320E94E01240E0ED
:1052D00050E0BA018FE090E00E94383240E050E0A8
:1052E000BA0183E190E00E94383248E050E067E183
:1052F00070E084E597E00E9417321092530782E035
:1053000090E00E940A328093570584E090E00E946A
:10531000123290934A0580934905B2DCEFEFF6E72D
:1053200021E0E150F0402040E1F700C00000A8DC9F
:1053300080914D0580FF1AC06FEF7FEF90E080E015
:105340000E9440320E94230860E0812F0E943109B0
:10535000082F61E0812F0E943109E12FF0E0EE5526
:10536000FA4F880F802B80831F5F52CF83E090E03D
:105370000E940A3290E00E94E30E80914B059091CA
:105380004C050E9472100E942F0981E08093530700
:1053900048E050E067E170E084E597E00E94FA3170
:1053A00010925307809154078C7F11F40E94E012F1
:1053B00080E00E9426128091E20681117AC0DED53B
:1053C0008091E206811175C060E072E08BE192E0AD
:1053D0000E94760981E591E09093E7068093E606C6
:1053E000E4E64E2E512C612C712C74E0272E312CCA
:1053F00001E080910C0710E450E1F52E62E1E62E09
:10540000853009F4EBC03CDC38E5E32E35E0F32EC3
:105410004DE4C42E45E0D42ED601F70191918D9133
:1054200035E0E236F30709F4E5C09817B9F3409187
:10543000E2064D8710E0D601BD906D01F701819025
:105440007F018B1431F1A12C992493948B24882D06
:105450008921B9F0FD85FF23A1F0AF8218870E9452
:1054600051159A87898721E02B8791E08B2D89211F
:1054700009F490E09C874F81588569857A858B85F2
:1054800095D8A394990C36E0A312E1CFF701319798
:10549000B0821F5F1A3079F60E94EE0B6093A80568
:1054A0007093A9058093AA059093AB0541E04D87C1
:1054B000A5C080E00E946C0688EE92E00E94581021
:1054C00085E00E94550F80914B0590914C050E94FC
:1054D0000A0F482F50E070E060E048305105610548
:1054E0007105B0F5440F551F4D595C4FDA018D9190
:1054F0009C910E946F1084E00E946C068EEE92E0F8
:105500000E946F1083E00E94550F80E00E94DC0F24
:1055100082EF92E00E946F1088E00E946C0684E0A7
:1055200093E00E946F1082E00E94550F80E00E947D
:10553000DC0F87EF92E00E946F108CE00E946C06F7
:105540008CEF92E00E946F1084E00E94550F42CFD2
:1055500090E00E941F06CDCF80910C07843009F4A3
:1055600032C00E946E128091BC05811105C00E945C
:10557000170B80E00E94600A0093BC050E94E511B1
:105580001092F206E8E1F0E00FB6F894A895E093E7
:1055900060000FBE1093600083B7817F846083BF7B
:1055A00083B7816083BF7894889583B78E7F83BFEC
:1055B0000FB6F894A8958091600088618093600090
:1055C000109260000FBE5CDBEDE4F5E0819181118B
:1055D00009C327E535E02E173F07C1F780910C0777
:1055E000853009F4B9CF0E94B6160E94AB0810921C
:1055F000BC0509CF98131BCF1ADD1D868091E206EA
:10560000882309F4B4C0C0906D05D0906E050D2CB0
:10561000000CEE08FF0810915B01212F30E0EDE651
:10562000F5E081E090E03296281739070CF0B8C019
:105630008090690590906A05A0906B05B0906C050C
:105640000E9434089B01AC01281939094A095B09F9
:1056500049015A0139EC83169104A104B1040CF1FB
:105660008091680590E0019669E170E02ED6809304
:105670006805880F991FFC01E359FA4F11821082C7
:10568000812F183108F087E18F5F80935B010E94C2
:1056900034086093690570936A0580936B05909355
:1056A0006C0542E0C416D104E104F1040CF484C09A
:1056B000A0E6BAEEA70196015FD66B017C0158EC1B
:1056C000159F90011124032E000C440B550B280D3F
:1056D000391D4A1D5B1DA5E0B0E04ED69B01AC0113
:1056E000C701B60105D669017A0181EFC816D10458
:1056F000E104F1042CF090EFC92ED12CE12CF12C17
:105700008090640590906505A0906605B09067054F
:105710000E9434089B01AC01281939094A095B0928
:1057200049015A0135E683169104A104B10484F0BD
:105730000E94340860936405709365058093660544
:10574000909367058091BD0580936305C0926205C3
:1057500010916305A0916205A11BBB0BA5019401EB
:1057600015D6A3019201E6D5120F1093BD050E9434
:105770006E12C090E206CC2019F00E94621CC82E66
:105780008091A505882351F01092A5058091F1051F
:105790008093F2058091EF058093F005D12C4AC0EB
:1057A00040815181052E000C660B770BC40ED51E6F
:1057B000E61EF71E019637CFC12CD12C7601A0CF63
:1057C00061E08D2D0E943109182F60E08D2D0E941F
:1057D0003109E12FEE0F8E2B2D2D30E0D901AE5582
:1057E000BA4FEC919E2F9370891719F1EE0FEE0FBF
:1057F000E82BEC938091A1058D0DEF70F0E0ED5852
:10580000FC4FA90141565A4F7A011081DA019C914F
:10581000190F1C9360E014301CF41D3F1CF461E070
:105820000E945109812F110F990BB1014ED5F7013B
:105830008083D3948091A405D81610F28091E2065B
:10584000882319F00E94621CC82ACC2079F00E949B
:10585000EE0B6093A8057093A9058093AA05909319
:10586000AB050E945E230E94FF1105C00E945E23CB
:10587000FD85F111F8CF86E0ECEDF6E0DE01119642
:1058800001900D928A95E1F7A090DD06C090DE06AA
:105890001091DF06B090E006D090E1061092DE068F
:1058A0001092DF061092E0061092E106812F8C29FB
:1058B00009F447C0E090DA06F090DB060E9451152B
:1058C0009C012E193F099091D506992309F4AFC187
:1058D00025313105B0F19F3F19F09F5F9093D506B8
:1058E000CC2059F00E94E0089FEF1C140CF491E0CA
:1058F000899F802D11248093DE06112359F00E9488
:10590000E00891E011160CF09FEF899F802D112483
:105910008093DF068091DE06882399F0F090DF0601
:10592000FF2079F00E940009882309F437C1809391
:10593000DE068F2D0E940009882309F432C180936E
:10594000DF068B2D8D2909F447C0E090D806F09032
:10595000D9060E9451159C012E193F099091D60637
:10596000992309F45FC121353105B0F19F3F19F04A
:105970009F5F9093D606BB2059F00E94BE089FEF10
:105980001B140CF491E0899F802D11248093E00674
:10599000DD2059F00E94BE0891E01D140CF09FEF2D
:1059A000899F802D11248093E1068091E006882351
:1059B00099F0F090E106FF2079F00E940009882319
:1059C00009F4F2C08093E0068F2D0E94000988231D
:1059D00009F4EDC08093E1068091DD06A81217C09E
:1059E0008091DE06882311F08C1111C02091DF0612
:1059F000222311F012130BC09091E106992311F0AC
:105A00009D1105C03091E006332309F406C10E94C0
:105A10008E1686E0FE013196ACEDB6E001900D9257
:105A20008A95E1F70E94AB089091A605891721F0AD
:105A30008093A6050E9434088091ED068230C9F556
:105A4000809102078823A9F1E0900307F0900407F2
:105A50000E9451158E199F098A3F910550F11092AD
:105A60000207109204071092030790910507809196
:105A7000A705981304C080915C018823D1F010928F
:105A80005C01809105078093A7058091050710911F
:105A900005078AE00E946C06123009F49AC008F0EB
:105AA00089C0112309F498C081E193E0113009F411
:105AB00088C08091E206882309F450C01091EB055C
:105AC0008090B0059090B105A090B205B090B3055C
:105AD0002FEF821A920AA20AB20A8092B00590921F
